{
  "contracts/KeepersCounter.sol": {
    "Counter": {
      "abi": [
        {
          "inputs": [
            {
              "internalType": "uint256",
              "name": "updateInterval",
              "type": "uint256"
            }
          ],
          "stateMutability": "nonpayable",
          "type": "constructor"
        },
        {
          "inputs": [
            {
              "internalType": "bytes",
              "name": "",
              "type": "bytes"
            }
          ],
          "name": "checkUpkeep",
          "outputs": [
            {
              "internalType": "bool",
              "name": "upkeepNeeded",
              "type": "bool"
            },
            {
              "internalType": "bytes",
              "name": "",
              "type": "bytes"
            }
          ],
          "stateMutability": "nonpayable",
          "type": "function"
        },
        {
          "inputs": [],
          "name": "counter",
          "outputs": [
            {
              "internalType": "uint256",
              "name": "",
              "type": "uint256"
            }
          ],
          "stateMutability": "view",
          "type": "function"
        },
        {
          "inputs": [],
          "name": "interval",
          "outputs": [
            {
              "internalType": "uint256",
              "name": "",
              "type": "uint256"
            }
          ],
          "stateMutability": "view",
          "type": "function"
        },
        {
          "inputs": [],
          "name": "lastTimeStamp",
          "outputs": [
            {
              "internalType": "uint256",
              "name": "",
              "type": "uint256"
            }
          ],
          "stateMutability": "view",
          "type": "function"
        },
        {
          "inputs": [
            {
              "internalType": "bytes",
              "name": "",
              "type": "bytes"
            }
          ],
          "name": "performUpkeep",
          "outputs": [],
          "stateMutability": "nonpayable",
          "type": "function"
        }
      ],
      "devdoc": {
        "kind": "dev",
        "methods": {},
        "version": 1
      },
      "evm": {
        "bytecode": {
          "linkReferences": {},
          "object": "60a060405234801561001057600080fd5b5060405161052b38038061052b83398181016040528101906100329190610063565b80608081815250504260018190555060008081905550506100b6565b60008151905061005d8161009f565b92915050565b6000602082840312156100795761007861009a565b5b60006100878482850161004e565b91505092915050565b6000819050919050565b600080fd5b6100a881610090565b81146100b357600080fd5b50565b6080516104536100d860003960008181610135015261016e01526104536000f3fe608060405234801561001057600080fd5b50600436106100575760003560e01c80633f3b3b271461005c5780634585e33b1461007a57806361bc221a146100965780636e04ff0d146100b4578063947a36fb146100e5575b600080fd5b610064610103565b60405161007191906102ba565b60405180910390f35b610094600480360381019061008f91906101e6565b610109565b005b61009e610129565b6040516100ab91906102ba565b60405180910390f35b6100ce60048036038101906100c991906101e6565b61012f565b6040516100dc92919061028a565b60405180910390f35b6100ed61016c565b6040516100fa91906102ba565b60405180910390f35b60015481565b42600181905550600160005461011f91906102f1565b6000819055505050565b60005481565b600060607f0000000000000000000000000000000000000000000000000000000000000000600154426101629190610347565b1191509250929050565b7f000000000000000000000000000000000000000000000000000000000000000081565b60008083601f8401126101a6576101a56103f8565b5b8235905067ffffffffffffffff8111156101c3576101c26103f3565b5b6020830191508360018202830111156101df576101de6103fd565b5b9250929050565b600080602083850312156101fd576101fc610407565b5b600083013567ffffffffffffffff81111561021b5761021a610402565b5b61022785828601610190565b92509250509250929050565b61023c8161037b565b82525050565b600061024d826102d5565b61025781856102e0565b9350610267818560208601610391565b6102708161040c565b840191505092915050565b61028481610387565b82525050565b600060408201905061029f6000830185610233565b81810360208301526102b18184610242565b90509392505050565b60006020820190506102cf600083018461027b565b92915050565b600081519050919050565b600082825260208201905092915050565b60006102fc82610387565b915061030783610387565b9250827fffffffffffffffffffffffffffffffffffffffffffffffffffffffffffffffff0382111561033c5761033b6103c4565b5b828201905092915050565b600061035282610387565b915061035d83610387565b9250828210156103705761036f6103c4565b5b828203905092915050565b60008115159050919050565b6000819050919050565b60005b838110156103af578082015181840152602081019050610394565b838111156103be576000848401525b50505050565b7f4e487b7100000000000000000000000000000000000000000000000000000000600052601160045260246000fd5b600080fd5b600080fd5b600080fd5b600080fd5b600080fd5b6000601f19601f830116905091905056fea26469706673582212200c8bb57da0f235871257b57fe471cc0df401a3f86bdcbfe09e6ec759f93bef0464736f6c63430008070033",
          "opcodes": "PUSH1 0xA0 PUSH1 0x40 MSTORE CALLVALUE DUP1 ISZERO PUSH2 0x10 JUMPI PUSH1 0x0 DUP1 REVERT JUMPDEST POP PUSH1 0x40 MLOAD PUSH2 0x52B CODESIZE SUB DUP1 PUSH2 0x52B DUP4 CODECOPY DUP2 DUP2 ADD PUSH1 0x40 MSTORE DUP2 ADD SWAP1 PUSH2 0x32 SWAP2 SWAP1 PUSH2 0x63 JUMP JUMPDEST DUP1 PUSH1 0x80 DUP2 DUP2 MSTORE POP POP TIMESTAMP PUSH1 0x1 DUP2 SWAP1 SSTORE POP PUSH1 0x0 DUP1 DUP2 SWAP1 SSTORE POP POP PUSH2 0xB6 JUMP JUMPDEST PUSH1 0x0 DUP2 MLOAD SWAP1 POP PUSH2 0x5D DUP2 PUSH2 0x9F JUMP JUMPDEST SWAP3 SWAP2 POP POP JUMP JUMPDEST PUSH1 0x0 PUSH1 0x20 DUP3 DUP5 SUB SLT ISZERO PUSH2 0x79 JUMPI PUSH2 0x78 PUSH2 0x9A JUMP JUMPDEST JUMPDEST PUSH1 0x0 PUSH2 0x87 DUP5 DUP3 DUP6 ADD PUSH2 0x4E JUMP JUMPDEST SWAP2 POP POP SWAP3 SWAP2 POP POP JUMP JUMPDEST PUSH1 0x0 DUP2 SWAP1 POP SWAP2 SWAP1 POP JUMP JUMPDEST PUSH1 0x0 DUP1 REVERT JUMPDEST PUSH2 0xA8 DUP2 PUSH2 0x90 JUMP JUMPDEST DUP2 EQ PUSH2 0xB3 JUMPI PUSH1 0x0 DUP1 REVERT JUMPDEST POP JUMP JUMPDEST PUSH1 0x80 MLOAD PUSH2 0x453 PUSH2 0xD8 PUSH1 0x0 CODECOPY PUSH1 0x0 DUP2 DUP2 PUSH2 0x135 ADD MSTORE PUSH2 0x16E ADD MSTORE PUSH2 0x453 PUSH1 0x0 RETURN INVALID PUSH1 0x80 PUSH1 0x40 MSTORE CALLVALUE DUP1 ISZERO PUSH2 0x10 JUMPI PUSH1 0x0 DUP1 REVERT JUMPDEST POP PUSH1 0x4 CALLDATASIZE LT PUSH2 0x57 JUMPI PUSH1 0x0 CALLDATALOAD PUSH1 0xE0 SHR DUP1 PUSH4 0x3F3B3B27 EQ PUSH2 0x5C JUMPI DUP1 PUSH4 0x4585E33B EQ PUSH2 0x7A JUMPI DUP1 PUSH4 0x61BC221A EQ PUSH2 0x96 JUMPI DUP1 PUSH4 0x6E04FF0D EQ PUSH2 0xB4 JUMPI DUP1 PUSH4 0x947A36FB EQ PUSH2 0xE5 JUMPI JUMPDEST PUSH1 0x0 DUP1 REVERT JUMPDEST PUSH2 0x64 PUSH2 0x103 JUMP JUMPDEST PUSH1 0x40 MLOAD PUSH2 0x71 SWAP2 SWAP1 PUSH2 0x2BA JUMP JUMPDEST PUSH1 0x40 MLOAD DUP1 SWAP2 SUB SWAP1 RETURN JUMPDEST PUSH2 0x94 PUSH1 0x4 DUP1 CALLDATASIZE SUB DUP2 ADD SWAP1 PUSH2 0x8F SWAP2 SWAP1 PUSH2 0x1E6 JUMP JUMPDEST PUSH2 0x109 JUMP JUMPDEST STOP JUMPDEST PUSH2 0x9E PUSH2 0x129 JUMP JUMPDEST PUSH1 0x40 MLOAD PUSH2 0xAB SWAP2 SWAP1 PUSH2 0x2BA JUMP JUMPDEST PUSH1 0x40 MLOAD DUP1 SWAP2 SUB SWAP1 RETURN JUMPDEST PUSH2 0xCE PUSH1 0x4 DUP1 CALLDATASIZE SUB DUP2 ADD SWAP1 PUSH2 0xC9 SWAP2 SWAP1 PUSH2 0x1E6 JUMP JUMPDEST PUSH2 0x12F JUMP JUMPDEST PUSH1 0x40 MLOAD PUSH2 0xDC SWAP3 SWAP2 SWAP1 PUSH2 0x28A JUMP JUMPDEST PUSH1 0x40 MLOAD DUP1 SWAP2 SUB SWAP1 RETURN JUMPDEST PUSH2 0xED PUSH2 0x16C JUMP JUMPDEST PUSH1 0x40 MLOAD PUSH2 0xFA SWAP2 SWAP1 PUSH2 0x2BA JUMP JUMPDEST PUSH1 0x40 MLOAD DUP1 SWAP2 SUB SWAP1 RETURN JUMPDEST PUSH1 0x1 SLOAD DUP2 JUMP JUMPDEST TIMESTAMP PUSH1 0x1 DUP2 SWAP1 SSTORE POP PUSH1 0x1 PUSH1 0x0 SLOAD PUSH2 0x11F SWAP2 SWAP1 PUSH2 0x2F1 JUMP JUMPDEST PUSH1 0x0 DUP2 SWAP1 SSTORE POP POP POP JUMP JUMPDEST PUSH1 0x0 SLOAD DUP2 JUMP JUMPDEST PUSH1 0x0 PUSH1 0x60 PUSH32 0x0 PUSH1 0x1 SLOAD TIMESTAMP PUSH2 0x162 SWAP2 SWAP1 PUSH2 0x347 JUMP JUMPDEST GT SWAP2 POP SWAP3 POP SWAP3 SWAP1 POP JUMP JUMPDEST PUSH32 0x0 DUP2 JUMP JUMPDEST PUSH1 0x0 DUP1 DUP4 PUSH1 0x1F DUP5 ADD SLT PUSH2 0x1A6 JUMPI PUSH2 0x1A5 PUSH2 0x3F8 JUMP JUMPDEST JUMPDEST DUP3 CALLDATALOAD SWAP1 POP PUSH8 0xFFFFFFFFFFFFFFFF DUP2 GT ISZERO PUSH2 0x1C3 JUMPI PUSH2 0x1C2 PUSH2 0x3F3 JUMP JUMPDEST JUMPDEST PUSH1 0x20 DUP4 ADD SWAP2 POP DUP4 PUSH1 0x1 DUP3 MUL DUP4 ADD GT ISZERO PUSH2 0x1DF JUMPI PUSH2 0x1DE PUSH2 0x3FD JUMP JUMPDEST JUMPDEST SWAP3 POP SWAP3 SWAP1 POP JUMP JUMPDEST PUSH1 0x0 DUP1 PUSH1 0x20 DUP4 DUP6 SUB SLT ISZERO PUSH2 0x1FD JUMPI PUSH2 0x1FC PUSH2 0x407 JUMP JUMPDEST JUMPDEST PUSH1 0x0 DUP4 ADD CALLDATALOAD PUSH8 0xFFFFFFFFFFFFFFFF DUP2 GT ISZERO PUSH2 0x21B JUMPI PUSH2 0x21A PUSH2 0x402 JUMP JUMPDEST JUMPDEST PUSH2 0x227 DUP6 DUP3 DUP7 ADD PUSH2 0x190 JUMP JUMPDEST SWAP3 POP SWAP3 POP POP SWAP3 POP SWAP3 SWAP1 POP JUMP JUMPDEST PUSH2 0x23C DUP2 PUSH2 0x37B JUMP JUMPDEST DUP3 MSTORE POP POP JUMP JUMPDEST PUSH1 0x0 PUSH2 0x24D DUP3 PUSH2 0x2D5 JUMP JUMPDEST PUSH2 0x257 DUP2 DUP6 PUSH2 0x2E0 JUMP JUMPDEST SWAP4 POP PUSH2 0x267 DUP2 DUP6 PUSH1 0x20 DUP7 ADD PUSH2 0x391 JUMP JUMPDEST PUSH2 0x270 DUP2 PUSH2 0x40C JUMP JUMPDEST DUP5 ADD SWAP2 POP POP SWAP3 SWAP2 POP POP JUMP JUMPDEST PUSH2 0x284 DUP2 PUSH2 0x387 JUMP JUMPDEST DUP3 MSTORE POP POP JUMP JUMPDEST PUSH1 0x0 PUSH1 0x40 DUP3 ADD SWAP1 POP PUSH2 0x29F PUSH1 0x0 DUP4 ADD DUP6 PUSH2 0x233 JUMP JUMPDEST DUP2 DUP2 SUB PUSH1 0x20 DUP4 ADD MSTORE PUSH2 0x2B1 DUP2 DUP5 PUSH2 0x242 JUMP JUMPDEST SWAP1 POP SWAP4 SWAP3 POP POP POP JUMP JUMPDEST PUSH1 0x0 PUSH1 0x20 DUP3 ADD SWAP1 POP PUSH2 0x2CF PUSH1 0x0 DUP4 ADD DUP5 PUSH2 0x27B JUMP JUMPDEST SWAP3 SWAP2 POP POP JUMP JUMPDEST PUSH1 0x0 DUP2 MLOAD SWAP1 POP SWAP2 SWAP1 POP JUMP JUMPDEST PUSH1 0x0 DUP3 DUP3 MSTORE PUSH1 0x20 DUP3 ADD SWAP1 POP SWAP3 SWAP2 POP POP JUMP JUMPDEST PUSH1 0x0 PUSH2 0x2FC DUP3 PUSH2 0x387 JUMP JUMPDEST SWAP2 POP PUSH2 0x307 DUP4 PUSH2 0x387 JUMP JUMPDEST SWAP3 POP DUP3 PUSH32 0xFFFFFFFFFFFFFFFFFFFFFFFFFFFFFFFFFFFFFFFFFFFFFFFFFFFFFFFFFFFFFFFF SUB DUP3 GT ISZERO PUSH2 0x33C JUMPI PUSH2 0x33B PUSH2 0x3C4 JUMP JUMPDEST JUMPDEST DUP3 DUP3 ADD SWAP1 POP SWAP3 SWAP2 POP POP JUMP JUMPDEST PUSH1 0x0 PUSH2 0x352 DUP3 PUSH2 0x387 JUMP JUMPDEST SWAP2 POP PUSH2 0x35D DUP4 PUSH2 0x387 JUMP JUMPDEST SWAP3 POP DUP3 DUP3 LT ISZERO PUSH2 0x370 JUMPI PUSH2 0x36F PUSH2 0x3C4 JUMP JUMPDEST JUMPDEST DUP3 DUP3 SUB SWAP1 POP SWAP3 SWAP2 POP POP JUMP JUMPDEST PUSH1 0x0 DUP2 ISZERO ISZERO SWAP1 POP SWAP2 SWAP1 POP JUMP JUMPDEST PUSH1 0x0 DUP2 SWAP1 POP SWAP2 SWAP1 POP JUMP JUMPDEST PUSH1 0x0 JUMPDEST DUP4 DUP2 LT ISZERO PUSH2 0x3AF JUMPI DUP1 DUP3 ADD MLOAD DUP2 DUP5 ADD MSTORE PUSH1 0x20 DUP2 ADD SWAP1 POP PUSH2 0x394 JUMP JUMPDEST DUP4 DUP2 GT ISZERO PUSH2 0x3BE JUMPI PUSH1 0x0 DUP5 DUP5 ADD MSTORE JUMPDEST POP POP POP POP JUMP JUMPDEST PUSH32 0x4E487B7100000000000000000000000000000000000000000000000000000000 PUSH1 0x0 MSTORE PUSH1 0x11 PUSH1 0x4 MSTORE PUSH1 0x24 PUSH1 0x0 REVERT JUMPDEST PUSH1 0x0 DUP1 REVERT JUMPDEST PUSH1 0x0 DUP1 REVERT JUMPDEST PUSH1 0x0 DUP1 REVERT JUMPDEST PUSH1 0x0 DUP1 REVERT JUMPDEST PUSH1 0x0 DUP1 REVERT JUMPDEST PUSH1 0x0 PUSH1 0x1F NOT PUSH1 0x1F DUP4 ADD AND SWAP1 POP SWAP2 SWAP1 POP JUMP INVALID LOG2 PUSH5 0x6970667358 0x22 SLT KECCAK256 0xC DUP12 0xB5 PUSH30 0xA0F235871257B57FE471CC0DF401A3F86BDCBFE09E6EC759F93BEF046473 PUSH16 0x6C634300080700330000000000000000 "
        },
        "gasEstimates": {
          "creation": {
            "codeDepositCost": "221400",
            "executionCost": "infinite",
            "totalCost": "infinite"
          },
          "external": {
            "checkUpkeep(bytes)": "infinite",
            "counter()": "2451",
            "interval()": "infinite",
            "lastTimeStamp()": "2407",
            "performUpkeep(bytes)": "infinite"
          }
        },
        "methodIdentifiers": {
          "checkUpkeep(bytes)": "6e04ff0d",
          "counter()": "61bc221a",
          "interval()": "947a36fb",
          "lastTimeStamp()": "3f3b3b27",
          "performUpkeep(bytes)": "4585e33b"
        }
      },
      "storageLayout": {
        "storage": [
          {
            "astId": 2551,
            "contract": "contracts/KeepersCounter.sol:Counter",
            "label": "counter",
            "offset": 0,
            "slot": "0",
            "type": "t_uint256"
          },
          {
            "astId": 2556,
            "contract": "contracts/KeepersCounter.sol:Counter",
            "label": "lastTimeStamp",
            "offset": 0,
            "slot": "1",
            "type": "t_uint256"
          }
        ],
        "types": {
          "t_uint256": {
            "encoding": "inplace",
            "label": "uint256",
            "numberOfBytes": "32"
          }
        }
      },
      "userdoc": {
        "kind": "user",
        "methods": {
          "counter()": {
            "notice": "Public counter variable"
          },
          "interval()": {
            "notice": "Use an interval in seconds and a timestamp to slow execution of Upkeep"
          }
        },
        "version": 1
      }
    }
  }
}