{
  "_format": "hh-sol-artifact-1",
  "contractName": "RandomNumberConsumer",
  "sourceName": "contracts/RandomNumberConsumer.sol",
  "abi": [
    {
      "inputs": [
        {
          "internalType": "address",
          "name": "_vrfCoordinator",
          "type": "address"
        },
        {
          "internalType": "address",
          "name": "_link",
          "type": "address"
        },
        {
          "internalType": "bytes32",
          "name": "_keyHash",
          "type": "bytes32"
        },
        {
          "internalType": "uint256",
          "name": "_fee",
          "type": "uint256"
        }
      ],
      "stateMutability": "nonpayable",
      "type": "constructor"
    },
    {
      "inputs": [],
      "name": "getRandomNumber",
      "outputs": [
        {
          "internalType": "bytes32",
          "name": "requestId",
          "type": "bytes32"
        }
      ],
      "stateMutability": "nonpayable",
      "type": "function"
    },
    {
      "inputs": [],
      "name": "randomResult",
      "outputs": [
        {
          "internalType": "uint256",
          "name": "",
          "type": "uint256"
        }
      ],
      "stateMutability": "view",
      "type": "function"
    },
    {
      "inputs": [
        {
          "internalType": "bytes32",
          "name": "requestId",
          "type": "bytes32"
        },
        {
          "internalType": "uint256",
          "name": "randomness",
          "type": "uint256"
        }
      ],
      "name": "rawFulfillRandomness",
      "outputs": [],
      "stateMutability": "nonpayable",
      "type": "function"
    }
  ],
  "bytecode": "0x60c06040523480156200001157600080fd5b5060405162000bec38038062000bec833981810160405281019062000037919062000106565b83838173ffffffffffffffffffffffffffffffffffffffff1660a08173ffffffffffffffffffffffffffffffffffffffff1660601b815250508073ffffffffffffffffffffffffffffffffffffffff1660808173ffffffffffffffffffffffffffffffffffffffff1660601b81525050505081600181905550806002819055505050505062000213565b600081519050620000d281620001c5565b92915050565b600081519050620000e981620001df565b92915050565b6000815190506200010081620001f9565b92915050565b60008060008060808587031215620001235762000122620001c0565b5b60006200013387828801620000c1565b94505060206200014687828801620000c1565b93505060406200015987828801620000d8565b92505060606200016c87828801620000ef565b91505092959194509250565b6000620001858262000196565b9050919050565b6000819050919050565b600073ffffffffffffffffffffffffffffffffffffffff82169050919050565b6000819050919050565b600080fd5b620001d08162000178565b8114620001dc57600080fd5b50565b620001ea816200018c565b8114620001f657600080fd5b50565b6200020481620001b6565b81146200021057600080fd5b50565b60805160601c60a05160601c6109a06200024c6000396000818160a6015261028d015260008181610147015261025101526109a06000f3fe608060405234801561001057600080fd5b50600436106100415760003560e01c806342619f661461004657806394985ddd14610064578063dbdff2c114610080575b600080fd5b61004e61009e565b60405161005b9190610731565b60405180910390f35b61007e6004803603810190610079919061049c565b6100a4565b005b610088610140565b6040516100959190610668565b60405180910390f35b60035481565b7f000000000000000000000000000000000000000000000000000000000000000073ffffffffffffffffffffffffffffffffffffffff163373ffffffffffffffffffffffffffffffffffffffff1614610132576040517f08c379a000000000000000000000000000000000000000000000000000000000815260040161012990610711565b60405180910390fd5b61013c8282610242565b5050565b60006002547f000000000000000000000000000000000000000000000000000000000000000073ffffffffffffffffffffffffffffffffffffffff166370a08231306040518263ffffffff1660e01b815260040161019e919061060f565b60206040518083038186803b1580156101b657600080fd5b505afa1580156101ca573d6000803e3d6000fd5b505050506040513d601f19601f820116820180604052508101906101ee91906104dc565b101561022f576040517f08c379a0000000000000000000000000000000000000000000000000000000008152600401610226906106f1565b60405180910390fd5b61023d60015460025461024d565b905090565b806003819055505050565b60007f000000000000000000000000000000000000000000000000000000000000000073ffffffffffffffffffffffffffffffffffffffff16634000aea07f0000000000000000000000000000000000000000000000000000000000000000848660006040516020016102c1929190610683565b6040516020818303038152906040526040518463ffffffff1660e01b81526004016102ee9392919061062a565b602060405180830381600087803b15801561030857600080fd5b505af115801561031c573d6000803e3d6000fd5b505050506040513d601f19601f82011682018060405250810190610340919061046f565b50600061036284600030600080898152602001908152602001600020546103ac565b90506001600080868152602001908152602001600020546103839190610779565b600080868152602001908152602001600020819055506103a384826103e8565b91505092915050565b6000848484846040516020016103c594939291906106ac565b6040516020818303038152906040528051906020012060001c9050949350505050565b600082826040516020016103fd9291906105e3565b60405160208183030381529060405280519060200120905092915050565b60008151905061042a81610925565b92915050565b60008135905061043f8161093c565b92915050565b60008135905061045481610953565b92915050565b60008151905061046981610953565b92915050565b60006020828403121561048557610484610897565b5b60006104938482850161041b565b91505092915050565b600080604083850312156104b3576104b2610897565b5b60006104c185828601610430565b92505060206104d285828601610445565b9150509250929050565b6000602082840312156104f2576104f1610897565b5b60006105008482850161045a565b91505092915050565b610512816107cf565b82525050565b610521816107ed565b82525050565b610538610533826107ed565b610854565b82525050565b60006105498261074c565b6105538185610757565b9350610563818560208601610821565b61056c8161089c565b840191505092915050565b6000610584602b83610768565b915061058f826108ad565b604082019050919050565b60006105a7601f83610768565b91506105b2826108fc565b602082019050919050565b6105c681610817565b82525050565b6105dd6105d882610817565b61085e565b82525050565b60006105ef8285610527565b6020820191506105ff82846105cc565b6020820191508190509392505050565b60006020820190506106246000830184610509565b92915050565b600060608201905061063f6000830186610509565b61064c60208301856105bd565b818103604083015261065e818461053e565b9050949350505050565b600060208201905061067d6000830184610518565b92915050565b60006040820190506106986000830185610518565b6106a560208301846105bd565b9392505050565b60006080820190506106c16000830187610518565b6106ce60208301866105bd565b6106db6040830185610509565b6106e860608301846105bd565b95945050505050565b6000602082019050818103600083015261070a81610577565b9050919050565b6000602082019050818103600083015261072a8161059a565b9050919050565b600060208201905061074660008301846105bd565b92915050565b600081519050919050565b600082825260208201905092915050565b600082825260208201905092915050565b600061078482610817565b915061078f83610817565b9250827fffffffffffffffffffffffffffffffffffffffffffffffffffffffffffffffff038211156107c4576107c3610868565b5b828201905092915050565b60006107da826107f7565b9050919050565b60008115159050919050565b6000819050919050565b600073ffffffffffffffffffffffffffffffffffffffff82169050919050565b6000819050919050565b60005b8381101561083f578082015181840152602081019050610824565b8381111561084e576000848401525b50505050565b6000819050919050565b6000819050919050565b7f4e487b7100000000000000000000000000000000000000000000000000000000600052601160045260246000fd5b600080fd5b6000601f19601f8301169050919050565b7f4e6f7420656e6f756768204c494e4b202d2066696c6c20636f6e74726163742060008201527f7769746820666175636574000000000000000000000000000000000000000000602082015250565b7f4f6e6c7920565246436f6f7264696e61746f722063616e2066756c66696c6c00600082015250565b61092e816107e1565b811461093957600080fd5b50565b610945816107ed565b811461095057600080fd5b50565b61095c81610817565b811461096757600080fd5b5056fea264697066735822122085af70ba90896e923972328aabece59b9b798cbdc4f5af97634682b0b53b5f4f64736f6c63430008070033",
  "linkReferences": {},
  "deployedLinkReferences": {}
}